:020000040800F2
:1000000050090020450100088B170008BD160008A4
:10001000891700088D010008391C00080000000045
:10002000000000000000000000000000AF17000802
:10003000BB01000800000000AD170008B117000860
:100040005F0100085F0100085F0100085F01000810
:100050005F0100085F0100085F0100085F01000800
:100060005F0100085F0100085F0100085F010008F0
:100070005F0100085F010008910100085F010008AE
:100080005F0100085F0100085F0100085F010008D0
:100090005F0100085F0100085F0100085F010008C0
:1000A0005F0100085F0100085F0100085F010008B0
:1000B0005F0100085F0100085F0100085F010008A0
:1000C0005F0100085F0100085F0100085F01000890
:1000D0005F0100085F010008FD1B00085F010008C8
:1000E0005F0100085F0100085F0100085F01000870
:1000F0005F0100085F0100085F0100085F01000860
:100100005F0100085F0100085F0100085F0100084F
:100110005F0100085F0100085F0100085F0100083F
:100120005F0100085F0100085F0100085F0100082F
:10013000DFF80CD000F018F800480047591C000800
:10014000500900200648804706480047FEE7FEE7C2
:10015000FEE7FEE7FEE7FEE7FEE7FEE7FEE7FEE777
:100160001D18000831010008064C074D06E0E06844
:1001700040F0010394E8070098471034AC42F6D3EE
:10018000FFF7DAFFF81D0008181E0008FEE7000060
:10019000014800F041B800005802002010B5046882
:1001A00063604368102B036803D099600068C260E5
:1001B00010BD9A600068C16010BD7047FEE7000086
:1001C0002DE9F04104460068016821F00101016059
:1001D00000F0D2FB054600264FF47A7710E000BF0E
:1001E00000F0CAFB401BB8420AD954F8340F40F063
:1001F000200044F81409032060702670BDE8F081E7
:1002000020680068C007EBD1012084F8210084F841
:1002100020600020F2E700002DE9F05F0446F94A73
:10022000F84DF84EF74F0068DFF8D893DFF8D4A305
:10023000DFF8D0B3D114783D643E503F4FF4000E48
:100240004FF4004C4FF40028A9F13C09AAF1280A08
:10025000ABF1140B904221D9EB4A1368A8420FD09E
:10026000B0420FD0B84213D0484513D0504513D0F8
:10027000584501D1724624E0E34A083290423CD10D
:1002800008221EE080221CE0DF4A3032904239D141
:100290000A4616E0624614E0424612E0D94A803A25
:1002A0001368A842ECD0B042ECD0B842F0D0484538
:1002B000F0D05045F0D05845DCD0D24A9042DBD146
:1002C0000205134279D00268D243120775D402683E
:1002D00022F008020260CB4A2068904232D9A8423C
:1002E00019D0B0421DD0B84228D0484523D050453F
:1002F00023D058450BD1714620E0C34A1C329042AE
:10030000C2D1BFE7C04A44329042C5D1C2E7BE4A1B
:100310000832904201D1082110E0BB4A1C329042C1
:1003200001D180210AE0B84A3032904206D0B64965
:100330004431884201D1614600E04146B248001D87
:1003400001602CE0A84214D0B04218D0B84223D0AB
:1003500048451ED050451ED0584501D171461BE07E
:10036000904202D14FF0006116E0A74A0832904255
:1003700001D1082110E0A44A1C32904201D1802111
:100380000AE0A14A3032904206D09F494431884267
:1003900001D1614600E041469A4880384160606B77
:1003A00040F001006063042084F82100002084F8FC
:1003B0002000216B09B120468847924A2068111518
:1003C0004FF4800E4FF4804C4FF48028904221D996
:1003D0008D4A1368A8420FD0B0420FD0B84213D054
:1003E000484513D0504513D0584501D1724624E0FA
:1003F000854A083290423FD104221EE040221CE090
:10040000814A303290423CD10A4616E0624614E0FE
:10041000424612E07B4A803A1368A842ECD0B042D0
:10042000ECD0B842F0D04845F0D05045F0D0584517
:10043000DCD0744A9042DBD1C204134275D002680A
:10044000D243520771D40268920603D4026822F0A4
:10045000040202606B4A2068904232D9A84219D047
:10046000B0421DD0B84228D0484523D0504523D0B3
:1004700058450BD1714620E0634A1C329042BFD1EF
:10048000BCE7614A44329042C2D1BFE75E4A0832BB
:10049000904201D1042110E05B4A1C32904201D10C
:1004A00040210AE0584A3032904206D05649443141
:1004B000884201D1614600E041465348001D016079
:1004C0002CE0A84214D0B04218D0B84223D04845FE
:1004D0001ED050451ED0584501D171461BE09042B8
:1004E00002D14FF0806116E0474A0832904201D1B4
:1004F000042110E0444A1C32904201D140210AE01C
:10050000414A3032904206D03F494431884201D1BD
:10051000614600E041463B4880384160112084F844
:100520002100E16A09B120468847364A2068511502
:100530004FF4005C4FF4003E904228D9324B1B68C8
:10054000A84212D0B04213D0B8421AD048451AD0AF
:1005500050451AD0584502D14FF400182AE0DFF870
:10056000A88008F10808404544D14FF0020821E076
:100570004FF020081EE0DFF8908008F13008404579
:1005800044D1884616E0E04614E0F04612E01D4BE8
:10059000803B1B68A842E8D0B042E9D0B842F0D016
:1005A0004845F0D05045F0D05845D5D09042D6D1EE
:1005B0004FF0007813EA080F70D00368DB439B0705
:1005C0007FD403689B0603D4036823F0020303600F
:1005D0002068904239D9A84221D0B04225D0B842F3
:1005E0002FD048452AD050452AD0584513D14FF432
:1005F000001126E0DFF8108008F11C084045BAD150
:10060000B6E700008000024000040240DFF8B88036
:100610004045BAD1B7E72C4A3C3A904201D1022179
:100620000FE0294A283A904201D1202109E0264AC8
:10063000143A904205D02449884201D1614600E035
:1006400071462148403801602CE0A84215D0B042E4
:1006500019D0B84224D048451ED050451FD0584527
:1006600002D14FF400111BE0904202D14FF0007113
:1006700016E0154A3C3A904201D1022110E0124A9C
:10068000283A904201D120210AE00F4A143A9042C0
:1006900006D00D49884202D1614601E011E0714661
:1006A0000A484160606B6063012084F821000020EB
:1006B00084F82000A16A002903D02046BDE8F05F3D
:1006C0000847BDE8F09F00004404024000000240DB
:1006D00070B520B190F82110002411B103E0012081
:1006E00070BD80F82040022180F8211003681A684C
:1006F00043F6F0718A43D0E901152943D0E9035646
:10070000354329434569294385692943C5692943F7
:10071000114319604463012180F82110002070BD4D
:1007200070B5044690F82000012823D0012084F8F9
:100730002000022084F821002068056825F00105CA
:1007400005602046FFF72AFD2068016841F002019C
:1007500001602068016841F00401016020680168BF
:1007600041F0080101602068016841F00101016069
:10077000002070BD022070BD31B500F0FDF80446C8
:1007800000F0FAF80099001B8842F9D338BD000048
:100790002DE9F84FDFF8B8A100220AF1040B144646
:1007A00001274FF00F090BF1040E00BF0B6807FA89
:1007B00004F52B40AB4274D1DFF898C14E68A6EB2C
:1007C0000C0866452BD00DDC032E34D005DC36B387
:1007D000012E19D0022E2FD11BE0112E16D0122E71
:1007E0002AD119E0B8F5881F19D006DCB8F5803F8A
:1007F00015D0B8F5801F1FD111E0B8F5001F0ED03D
:10080000B8F5041F18D10AE0CA6815E0CA68121DBD
:1008100012E0CA6808320FE0CA680C320CE08A683D
:100820002AB1012A4FF0080203D0456104E00422F6
:1008300002E0056100E00022FF2B01D8064601E03E
:1008400000F104064FEA840501D9A5F12005D6F888
:1008500000C009FA05F82CEA080C02FA05F54CEA82
:10086000050CC6F800C04D68ED006AD53A4DAE697A
:1008700046F00106AE61AD6924F0030605F00105FE
:100880000095364D06EB050CDCF80850A6074FEA3C
:10089000167809FA08F6B543314EB04202D1002667
:1008A0001AE04EE02F4EB04201D1012614E02E4E48
:1008B000B04201D102260FE02C4EB04201D10326F6
:1008C0000AE02B4EB04201D1042605E0294EB04289
:1008D00001D1052600E0062606FA08F62E43CCF8DC
:1008E00008604D68DAF80060ED03554601D51E43F7
:1008F00000E09E432E604D68AD0305D5DBF8006037
:100900001E43CBF8006004E0DBF800509D43CBF8B9
:1009100000504D68DEF80060ED02754601D51E43BB
:1009200000E09E432E604D68AD0205D5084D0C35A4
:100930002E681E432E6004E0054E0C3635689D433C
:100940003560641C102CFFF431AFBDE8F88F000057
:10095000000401400000111000100240000001409E
:1009600000080140000C014000100140001401404B
:1009700000180140001C0140014800687047000059
:10098000AC00002002480168491C0160704700006B
:10099000AC000020074810B5016841F0100101606B
:1009A000032000F087F8002000F006F800F016F8A9
:1009B000002010BD0020024010B5044600F050F9A0
:1009C0004FF47A71B0FBF1F000F0A2FC0022214656
:1009D000501E00F04FF8002010BD00001D4808B563
:1009E000816941F001018161806900F0010000909E
:1009F000032000F05FF8002211466FF00B0000F0BA
:100A000039F8002211466FF00A0000F033F8002296
:100A100011466FF0090000F02DF800221146501F1A
:100A200000F028F800221146101F00F023F80022E1
:100A30001146901E00F01EF800221146501E00F0D4
:100A400019F80548416821F0E06141F0007141600A
:100A500008BD0000001002400000014000F01F022D
:100A6000012191404009800000F1E020C0F8001110
:100A700070470000F0B40E4B1B680C46C3F3022312
:100A8000C3F10705042D00D90425191D072901D23A
:100A9000002300E0DB1E012606FA05F1491E214075
:100AA00099409E40761E16403143F0BC00F06EBE69
:100AB0000CED00E0064900F0070208684FF6FF035E
:100AC000184040EA0220034A1043086070470000C3
:100AD0000CED00E00000FA052DE9F047DFF8708129
:100AE00005460E46D8F8000000F00700B0420CD2D0
:100AF000D8F8001021F007013143C8F80010D8F8E9
:100B0000000000F00700B04277D12878514C8007F0
:100B100005D56068A96820F0F00008436060287877
:100B2000C00759D06968012001290DD0022929D0B8
:100B30005FF0020393FAA3F2B2FA82F242F02002CB
:100B4000520904D0226803E04FF40033F2E7626AEE
:100B500093FAA3F3B3FA83F303F01F03984002421E
:100B60004BD0606820F0030008436060FFF704FF8B
:100B70006968074641F2883001290DD00229814673
:100B800017D025E04FF00073D4E700BFFFF7F4FE65
:100B9000C11B494501D918E081466068C0F3810056
:100BA0000128F3D118E000BFFFF7E6FEC11B49455D
:100BB0000BD86068C0F381000228F5D10CE000BFBB
:100BC000FFF7DAFEC11B494502D90320BDE8F087D3
:100BD000606810F00C0FF3D1D8F80010404601F017
:100BE0000701B1420BD9016821F0070131430160CF
:100BF000006800F00700B04201D00120E6E7287845
:100C0000400705D56068E96820F4E060084360604B
:100C10002878000706D56068296920F4605040EA0A
:100C2000C100606000F052F86168F02292FAA2F20E
:100C300001F0F001B2FA82F2D140074A515CC8409B
:100C4000064908600020FFF7B7FE0020BEE700005D
:100C50000020024000100240E01D0008A800002013
:100C60000148006870470000A800002008480949B2
:100C7000006849684FF4E06292FAA2F201F4E06180
:100C8000B2FA82F2D140044A515CC8407047000079
:100C9000A800002000100240F01D00080848094983
:100CA000006849684FF4605292FAA2F201F4605170
:100CB000B2FA82F2D140044A515CC8407047000049
:100CC000A800002000100240F01D000810B519A374
:100CD00085B00FCB8DE80F001AA01B4B0068049065
:100CE0005A681A4802F00C0104291DD008291BD1AA
:100CF0004FF4701494FAA4F402F47011B4FA84F46A
:100D0000E140D2031DF8011010D55A684FF40033AA
:100D100093FAA3F302F40032B3FA83F3DA4004AB9C
:100D20009A5CB0FBF2F0484305B010BD0848484358
:100D3000FAE7000002030405060708090A0B0C0D78
:100D40000E0F1010010200000010024000127A0085
:100D500000093D002DE9F84F04460078F74DC00723
:100D60004FF0010625D068687704C0F381000128A0
:100D700007D06868C0F3810002281BD16868C003EF
:100D800018D597FAA7F0B0FA80F040F0200040099B
:100D900001D0286800E0686A97FAA7F1B1FA81F1FA
:100DA00001F01F0106FA01F108425ED060680028D8
:100DB0007CD05AE06068B0F5803F0BD010B1B0F540
:100DC000A02F11D0286820F480302860286820F4F3
:100DD000802002E0286840F480302860606828B3F2
:100DE000FFF7CAFD80460BE0286840F480202860A9
:100DF000F0E700BFFFF7C0FDA0EB0800642871D842
:100E000097FAA7F0B0FA80F040F02000400901D036
:100E1000286800E0686A97FAA7F1B1FA81F101F059
:100E20001F0106FA01F10842E4D01EE0FFF7A4FD1D
:100E3000804605E0FFF7A0FDA0EB08006428DED89F
:100E400097FAA7F0B0FA80F040F02000400901D0F6
:100E5000286800E0686A97FAA7F1B1FA81F101F019
:100E60001F0106FA01F10842E4D12078DFF8D082B0
:100E700080074FF000094FF002075BD568684FF01C
:100E8000F80B10F00C0F07D06868C0F3810002283F
:100E90001CD16868C00319D497FAA7F0B0FA80F0A3
:100EA00040F02000400902D0286801E08BE0686A29
:100EB00097FAA7F1B1FA81F101F01F0106FA01F1E9
:100EC00008422CD0206901287DD128E0206990B308
:100ED00096FAA6F0B0FA80F048F82060FFF74CFDD3
:100EE000824607E011E100BFFFF746FDA0EB0A00D4
:100EF000022884D897FAA7F0B0FA80F040F02000DA
:100F0000400901D0286800E0686A97FAA7F1B1FAB1
:100F100081F101F01F0106FA01F10842E4D02868CE
:100F20009BFAABF26169B2FA82F220F0F8009140CC
:100F30000843286025E0FFE796FAA6F1B1FA81F1AF
:100F400048F82190FFF718FD824605E0FFF714FDF1
:100F5000A0EB0A000228CCD897FAA7F0B0FA80F0EC
:100F600040F02000400901D0286800E0686A97FA44
:100F7000A7F1B1FA81F101F01F0106FA01F108426F
:100F8000E4D1207800076ED5A069B8B396FAA6F030
:100F9000B0FA80F008EB8000C0F88064FFF7ECFC4A
:100FA000824605E0FFF7E8FCA0EB0A000228A0D883
:100FB00097FAA7F0B0FA80F040F06000B6EB501F4F
:100FC00002D128680CE062E197FAA7F0B0FA80F04D
:100FD00040F06000B7EB501F01D1286A00E0686A5A
:100FE00097FAA7F1B1FA81F101F01F0106FA01F2B7
:100FF0001042D7D00120FFF7BFFB34E0FFE796FA9D
:10100000A6F1B1FA81F108EB8101C1F88094FFF7F4
:10101000B3FC824606E000BFFFF7AEFCA0EB0A007F
:10102000022872D897FAA7F0B0FA80F040F060007A
:10103000B6EB501F01D128680BE097FAA7F0B0FA81
:1010400080F040F06000B7EB501F01D1286A00E04B
:10105000686A97FAA7F1B1FA81F101F01F0106FA67
:1010600001F21042D8D12078400765D5E86940F0F8
:101070008050E861E869DFF8CCB000F08050009063
:10108000DBF8001041F48071CBF80010FFF774FC1E
:10109000824605E0FFF770FCA0EB0A00642834D814
:1010A000DBF80000C005F5D5E06801280AD008B1DA
:1010B000052813D0286A20F001002862286A20F051
:1010C000040002E0286A40F001002862E06841F272
:1010D000883B90B3FFF750FC82460BE0286A40F053
:1010E00004002862EEE700BFFFF746FCA0EB0A0110
:1010F00059450AD897FAA7F0B0FA80F040F04000BE
:10110000B6EB501F02D128680CE0A3E097FAA7F0D5
:10111000B0FA80F040F04000B7EB501F01D1286AD0
:1011200000E0686A97FAA7F1B1FA81F101F01F02B5
:1011300006FA02F10842D7D031E005E00010024083
:101140000000424200700040FFF716FC824605E0B6
:10115000FFF712FCA0EB0A0159457BD897FAA7F0DC
:10116000B0FA80F040F04000B6EB501F01D1286883
:101170000BE097FAA7F0B0FA80F040F04000B7EB30
:10118000501F01D1286A00E0686A97FAA7F1B1FA06
:1011900081F101F01F0206FA02F10842D8D1E0699C
:1011A00080B36968C1F38101022970D04FF080716A
:1011B0004F000228484609D091FAA1F1B1FA81F115
:1011C00048F82100FFF7D8FB044669E08A4691FA07
:1011D000A1F1B1FA81F1C14648F82100FFF7CCFB3B
:1011E000804605E0FFF7C8FBA0EB0800022854D8B2
:1011F00097FAA7F0B0FA80F040F02000400902D042
:10120000286801E061E0686A97FAA7F1B1FA81F114
:1012100001F01F0106FA01F10842E3D1206AB0F59E
:10122000803F05D16868A16820F4003008436860F9
:10123000D4E908010843696821F47411084368601F
:101240009AFAAAF0B0FA80F049F82060FFF794FB10
:10125000044606E021E000BFFFF78EFB001B0228DA
:101260001BD897FAA7F0B0FA80F040F020004009B0
:1012700001D0286800E0686A97FAA7F1B1FA81F115
:1012800001F01F0106FA01F10842E5D01DE01EE061
:10129000FFF772FB001B022802D90320BDE8F88F7C
:1012A00097FAA7F0B0FA80F040F02000400901D092
:1012B000286800E0686A97FAA7F1B1FA81F101F0B5
:1012C0001F0106FA01F10842E2D10020E6E7012001
:1012D000E4E74FF0E0210428086903D020F004007F
:1012E0000861704740F00400FAE70000064A10B5B4
:1012F0001068064C401C10600021201A71EB01039D
:1013000000DA116010BD00000000002000286BEE24
:1013100010B5401EB0F1807F01D3012010BD4FF009
:10132000E02460610F21601700F030FA0020A06116
:1013300007202061002010BD10B5FFF7D7FF10BDBA
:1013400010B504460068416921F0C0014161206B7D
:1013500008B1FEF735FF606B08B1FEF731FF0120E1
:1013600084F83900002010BD7047000038B50446ED
:1013700000680168C26811F0010F02F4807204D0A5
:101380001AB1E16B41F00101E1630168C1F3400270
:10139000416901F0010122B119B1E26B42F004028E
:1013A000E2630268C2F3800222B119B1E26B42F03B
:1013B0000202E2630268C2F3C00222B119B1E16B1A
:1013C00041F00801E1630168C068C1F3401100F019
:1013D000200019B110B1204600F070FA20680168B1
:1013E000C068C1F3C01100F0800019B110B12046EF
:1013F00000F070FB21680868CA68C0F3801002F032
:101400004002012570B16AB1CA68204622F040024C
:10141000CA6094F83910322911D080F8395000BFD1
:1014200000F04AF9E06B002808D0206801684068A5
:10143000009084F839502046FFF796FF38BD2221EE
:1014400080F83910ECE770B5040004D094F8390046
:10145000002510B106E0012070BD84F83850204608
:1014600000F020F8022084F839002068C16821F4D7
:101470000051C160204600F075FA2068016921F42E
:10148000904101612068416921F02A014161206891
:10149000C16841F40051C160E563012084F839005E
:1014A000002070BDF0B5064603683D48DFF8ECC08B
:1014B0000024022103223B4D071585B063452DD141
:1014C000836943F4804383618069039200F4804020
:1014D00004900802CDE9000169462846FFF758F953
:1014E000CDE90074694628460294FFF751F92F4D63
:1014F0002D4828601020C5E901048020C5E90304B7
:1015000080016C61C5E906402846FFF7E1F808B1A3
:10151000FEF754FE35636E6205B0F0BD244EB34253
:1015200020D1C36943F40033C361C069039200F45E
:10153000003004900420CDE9000169462846FFF7F9
:1015400027F90820CDE90004694628460294FFF7F0
:101550001FF9002211462620FFF78CFA2620FFF7FC
:101560007DFAD9E7134DAB42D6D1C36943F480234A
:10157000C361C069CDE9007100F48020CDE903208A
:101580000D4D69462846FFF703F9E814CDE900043C
:10159000694628460294FFF7FBF8BDE70038014092
:1015A00000100240000801404400024058020020A0
:1015B0000044004000480040000C014090F83930E1
:1015C000012B01D0122B2CD139B332B390F8383023
:1015D000012B26D0012380F8383081628285C285B4
:1015E0000021C16390F83920122A18D05FF022023E
:1015F00080F8392080F838100168CA6842F4807297
:10160000CA6001684A6942F001024A610068C16823
:1016100041F02001C1600020704701207047322254
:10162000E6E702207047704770B5044690F839002D
:10163000012801D0222836D181B37AB394F838003A
:10164000012830D0012084F838002162A284E2848D
:101650000025E56394F83900222822D05FF01200BB
:1016600084F83900236B11489862236B1048D862C4
:10167000236B1048186326681346321D206BFFF752
:101680004FF821686FF0400008602068416941F020
:101690008001416184F83850002070BDFFE70120CF
:1016A000FBE73220DCE70220F7E7000083180008A0
:1016B000B11800086518000870477047FEE7000081
:1016C000F0B50022C1F3071701F00F032D491646AC
:1016D0001546144601EB8011C7EB121000F1010E04
:1016E00002F00F0CBEF1030F0ED2ACEB030EBEF1F5
:1016F000020F09DA1EF1020F06DD881810F8400CFF
:1017000001282CD10420F0BD00F1020EBEF1050F1E
:101710000ED2ACEB030EBEF1030F09DA1EF1030F7C
:1017200006DD881810F8400C012818D1012616E0B3
:10173000C01C07280DD2ACEB0300042809DA10F115
:10174000040F06DD881810F8400C012807D1012588
:1017500005E0881810F8400C012800D10124521C23
:10176000D2B2402AB8D3012E05D0012D05D0012CCC
:1017700005D00020F0BD0320F0BD0220F0BD012007
:10178000F0BD000090020020FEE770470907090E37
:10179000002806DA00F00F0000F1E02080F8141DA8
:1017A000704700F1E02080F80014704770477047E0
:1017B00010B5FFF7E7F8BDE81040FFF7BDBD10B565
:1017C00090B00A20009001200024CDE906041021E9
:1017D000CDE904016846FFF7BDFA00B1FEE70F202E
:1017E000CDE90A040C940D9400210AA80E94FFF789
:1017F00073F900B1FEE7FFF733FA4FF47A71B0FBEB
:10180000F1F0FFF785FD0420FFF763FD002211468C
:10181000501EFFF72FF910B010BD00000D480168F1
:1018200041F00101016041680B4A114041600168CB
:101830000A4A11400160016821F480210160416879
:1018400021F4FE0141604FF41F0181600449C0038F
:1018500008607047001002400000FFF8FFFFF6FE2E
:1018600008ED00E010B5406A0021C185C184012166
:1018700080F83910C16B41F01001C163FFF774FDAE
:1018800010BD10B50146406A0968096889060CD484
:101890000021C18401684A6922F080024A6100681F
:1018A000C16841F04001C16010BDFFF705FF10BDE8
:1018B00010B5406AFFF701FF10BD000010B590F8A9
:1018C0003910222903D0322901D0022010BD8168AD
:1018D000B1F5805F11D00169002901681FD0496806
:1018E00001F07F03816A4A1C82620B70C18D491E20
:1018F0000904090CC18518D030E00269816A002A08
:101900000268526805D0D2B20A80816A491C81629D
:10191000ECE7C2F308020A80816A891CF7E74A688B
:10192000816A4B1C83620A70E0E70168CA6822F092
:101930002002CA6090F83910322911D00168CA68B3
:1019400022F48072CA6001684A6922F001024A6189
:101950005FF0010180F83910FFF765FE002010BD2F
:101960001221F7E72DE9F041044600680169E268B9
:1019700021F44051114301612169A0680843616964
:1019800008432168CA6841F20C639A430243CA6063
:1019900020684169A26921F44071114341614C49B9
:1019A00020686425322688423CD1FFF777F900EBA6
:1019B000C00101EB001061688900B0FBF1F7FFF78F
:1019C0006DF900EBC00101EB00106168B0468900C1
:1019D000B0FBF1F0B0FBF5F06FF01801484307EBF6
:1019E000800106EB0110B0FBF5F000F0F006FFF708
:1019F00055F900EBC00101EB001061688900B0FBF4
:101A0000F1F0B0FBF5F006EB0016FFF747F900EB3D
:101A1000C00101EB001061688900B0FBF1F7FFF72E
:101A20003DF93BE0FFF722F900EBC00101EB0010AC
:101A300061688900B0FBF1F7FFF718F900EBC0010E
:101A400001EB00106168B0468900B0FBF1F0B0FB1B
:101A5000F5F06FF01801484307EB800106EB011029
:101A6000B0FBF5F000F0F006FFF700F900EBC00165
:101A700001EB001061688900B0FBF1F0B0FBF5F0FC
:101A800006EB0016FFF7F2F800EBC00101EB0010C7
:101A900061688900B0FBF1F7FFF7E8F800EBC001DF
:101AA00001EB001061688900B0FBF1F0B0FBF5F0CC
:101AB0006FF01801484307EB800108EB0110B0FB01
:101AC000F5F0216800F00F0030448860BDE8F08137
:101AD0000038014090F83910122903D0322901D082
:101AE000022070478168B1F5805F016A0BD04A1C03
:101AF0000262026809785160C18C491E0904090C10
:101B0000C1840ED017E009880268C1F30801516052
:101B100001690029016A02D0491C0162ECE7891CB5
:101B2000FBE70168CA6822F08002CA600068C168E9
:101B300041F04001C160002070470000FCB500206A
:101B4000009001902B48417B827B09013039114480
:101B5000CFB2017C427C0907067845788478090E6B
:101B6000402A01D2303900E057391144CBB22B2E34
:101B70003FD14E2D3DD14F2C3BD1372F39D1282B82
:101B800037D890F82B100D2933D190F82C100A2952
:101B90002FD100214FEA0D0201EB41042518EC7C06
:101BA000402C4FEA041401D3A4F5AE6454542C7DA8
:101BB000555C402C2C4401D2303C00E0573C54543E
:101BC000491CC9B20829E7D30B49002001EB831156
:101BD00002EBD00300F007041B78C4F10704E340D4
:101BE0000C18401C03F00103C0B204F8403C40282C
:101BF000EED3FCBD440100209002002038B50C4813
:101C0000FFF7B4FB0A4C20680168C943C9060ED42B
:101C1000016840680090FFF791FF012084F83900C7
:101C200002022046BDE838400249FFF7C7BC38BD74
:101C30000401002044010020FEE702E008C8121F52
:101C400008C1002AFAD170477047002001E001C1A5
:101C5000121F002AFBD1704708B5FEF79BFEFFF765
:101C6000AEFD5848816941F004018161816901F04C
:101C700004010091816941F008018161816901F0ED
:101C800008010091416941F0010141614069002270
:101C900000F00100009011460E20FEF7EBFE0E2032
:101CA000FEF7DCFE494848494FF4E1360024016064
:101CB000C0E901640C27C460C0E904478461C461C1
:101CC000FFF7C1FB00B1FEE7404D414840352860B9
:101CD000C5E90164EC60C5E90447AC612846EC61E4
:101CE000FFF7B1FB00B1FEE72868C16841F01001C1
:101CF000C16036494FF480728031A1F14000FFF796
:101D00005DFCDFF8D0B0DFF8D0A0002533480BEB46
:101D1000051400EB05082D4898F80B10143800EB5B
:101D2000050989F80B10A1796078FFF7C9FCE17A01
:101D300000FB01F6E179A078FFF7C2FC217B00FBF4
:101D40000167217AE078FFF7BBFC617B00FB01F6BD
:101D5000617A2079FFF7B4FCA17B00FB01603E189B
:101D6000A17A6079FFF7ACFCE17B052D00FB0160F7
:101D700081B250462AF8151002D2283120F81510E9
:101D800088B2FF2803D9FF2188F80B1001E088F8FA
:101D90000B0098F80B1099F80B00814202D2C01E7C
:101DA00088F80B006D1CEDB2092DAFD314220B493E
:101DB0000648FFF739FC6420FEF7DEFC0348FFF716
:101DC000BFFAA2E70010024000380140C400002022
:101DD0000044004004000020440200209400002041
:101DE00000000000000000000102030406070809CB
:101DF0000000000001020304181E0008000000207B
:101E0000B00000003A1C0008C81E0008B000002006
:101E1000A00800004A1C00080000000001010203A5
:101E200004051818181818123712120002020304B9
:101E3000050618181818181212371212030405068E
:101E40000708181818181812123712120406070873
:101E5000090A18181818181212371212050708095B
:101E60000A0B18181818180012123712060102036C
:101E7000040518181818181E3C1E00000704050653
:101E8000070818181818181E3C1E00000807080933
:101E90000A0B18181818181E3C1E000009090A0B16
:101EA000070818181818181E3C1E000041542B4E25
:101EB0004F544946593D01505050505000000000C9
:081EC00000A24A04000000002A
:0400000508000131BD
:00000001FF
